:100000000C942A000C9434000C9434000C943400AA
:100010000C9434000C9434000C9434000C94340090
:100020000C9434000C9434000C9434000C94340080
:100030000C9434000C9434000C9434000C94340070
:100040000C9434000C9434000C9434000C94340060
:100050000C94340011241FBECFE5D4E0DEBFCDBF29
:100060000E9436000C949A000C940000DF93CF930A
:10007000CDB7DEB7AAE3B0E0EAE3F0E08081877FA6
:100080008C93ABE3B0E0EBE3F0E0808188608C938D
:10009000AAE3B0E0EAE3F0E0808180628C93AAE317
:1000A000B0E0EAE3F0E0808180688C93ABE3B0E0FD
:1000B000EBE3F0E080818F778C93ABE3B0E0EBE390
:1000C000F0E080818F7D8C93E9E3F0E0808186957C
:1000D00086958695882F90E081709070009779F4CE
:1000E000ABE3B0E0EBE3F0E0808180628C93ABE3C4
:1000F000B0E0EBE3F0E080818F778C93E5CFE9E32C
:10010000F0E08081869586958695882F90E08170B5
:1001100090708823C9F2ABE3B0E0EBE3F0E08081BC
:1001200080688C93ABE3B0E0EBE3F0E080818F7DFF
:080130008C93CACFF894FFCFB5
:00000001FF
